:103D800001C01AC1112485B7882371F0982F9A7049
:103D9000923051F081FF02C097EF95BF282E80E04E
:103DA000F8D0E4E3FF27099485E08093710082E076
:103DB0008093790088E18093780086E08093770093
:103DC00080E1809374008EE0E4D0409A86E020E3A6
:103DD0003CEF90E830936F0020936E0099BF09B6D6
:103DE00007FEFDCF389AA8954091790047FD02C0A3
:103DF000815081F780EC9EE1C92EBB24B39425E06D
:103E0000A22E33E0932E7C01B8D0813451F4B5D08A
:103E1000182FC3D0113811F083E001C088E0A6D07C
:103E2000A2C0823411F484E103C0853419F485E022
:103E3000BCD099C0853539F4A0D0C82F9ED0D82FDA
:103E4000CC0FDD1F8FC0863521F484E0AED080E03A
:103E5000E6CF843609F050C090D08FD0D82E8DD0C8
:103E6000882E00E011E089D0F80181938F01DE12E5
:103E7000FACF93D0209769F4809102018093440196
:103E80008091030180934501E0920201C0920301F9
:103E900013C0C036D10581F480910A018093460198
:103EA00080910B01809347018091440180930A0126
:103EB0008091450180930B01F5E48F1201C0FFCF83
:103EC0008C2F8F77FE0131F497BEE89507B600FC82
:103ED000FDCFFE01A0E0B1E08D919D910C01B7BE38
:103EE000E89511243296DA12F7CFFE01A7BEE895C5
:103EF00007B600FCFDCF37C0843739F53ED03DD042
:103F0000D82E3BD04AD08E010230110519F4809191
:103F1000440114C00330110519F4809145010EC00D
:103F20000A36110519F48091460108C00B361105B7
:103F300019F48091470102C0F801849117D0DA94F6
:103F40000F5F1F4FD110E0CF0EC0853739F425D059
:103F50008EE10CD084E90AD082E161CF813511F481
:103F600088E017D01AD080E101D04ECF909179002F
:103F700095FFFCCF8093730008958091790087FFAF
:103F8000FCCF8091790084FD01C0A89580917300D9
:103F9000089598ED9FBD80BF0895EFDF803219F03E
:103FA00088E0F7DFFFCF84E1E1CFCF93C82FE5DFD3
:103FB000C150E9F7CF91F1CFFC010A0167BFE89545
:0A3FC000112407B600FCFDCF0895A0
:023FFE000308B6
:0400000300003D803C
:00000001FF
